{
  "address": "0x20fAEd7d48180feD5D01fd9A91316fBF2473f255",
  "abi": [
    {
      "inputs": [
        {
          "internalType": "address",
          "name": "_token",
          "type": "address"
        }
      ],
      "stateMutability": "nonpayable",
      "type": "constructor"
    },
    {
      "anonymous": false,
      "inputs": [
        {
          "indexed": false,
          "internalType": "uint256",
          "name": "id",
          "type": "uint256"
        }
      ],
      "name": "Cancel",
      "type": "event"
    },
    {
      "anonymous": false,
      "inputs": [
        {
          "indexed": false,
          "internalType": "uint256",
          "name": "id",
          "type": "uint256"
        }
      ],
      "name": "Claim",
      "type": "event"
    },
    {
      "anonymous": false,
      "inputs": [
        {
          "indexed": false,
          "internalType": "uint256",
          "name": "id",
          "type": "uint256"
        },
        {
          "indexed": true,
          "internalType": "address",
          "name": "creator",
          "type": "address"
        },
        {
          "indexed": false,
          "internalType": "uint256",
          "name": "goal",
          "type": "uint256"
        },
        {
          "indexed": false,
          "internalType": "uint32",
          "name": "startAt",
          "type": "uint32"
        },
        {
          "indexed": false,
          "internalType": "uint32",
          "name": "endAt",
          "type": "uint32"
        }
      ],
      "name": "Launch",
      "type": "event"
    },
    {
      "anonymous": false,
      "inputs": [
        {
          "indexed": true,
          "internalType": "uint256",
          "name": "id",
          "type": "uint256"
        },
        {
          "indexed": true,
          "internalType": "address",
          "name": "caller",
          "type": "address"
        },
        {
          "indexed": false,
          "internalType": "uint256",
          "name": "amount",
          "type": "uint256"
        }
      ],
      "name": "Pledge",
      "type": "event"
    },
    {
      "anonymous": false,
      "inputs": [
        {
          "indexed": false,
          "internalType": "uint256",
          "name": "id",
          "type": "uint256"
        },
        {
          "indexed": true,
          "internalType": "address",
          "name": "caller",
          "type": "address"
        },
        {
          "indexed": false,
          "internalType": "uint256",
          "name": "amount",
          "type": "uint256"
        }
      ],
      "name": "Refund",
      "type": "event"
    },
    {
      "anonymous": false,
      "inputs": [
        {
          "indexed": true,
          "internalType": "uint256",
          "name": "id",
          "type": "uint256"
        },
        {
          "indexed": true,
          "internalType": "address",
          "name": "caller",
          "type": "address"
        },
        {
          "indexed": false,
          "internalType": "uint256",
          "name": "amount",
          "type": "uint256"
        }
      ],
      "name": "Unpledge",
      "type": "event"
    },
    {
      "inputs": [
        {
          "internalType": "uint256",
          "name": "",
          "type": "uint256"
        }
      ],
      "name": "campaigns",
      "outputs": [
        {
          "internalType": "address",
          "name": "creator",
          "type": "address"
        },
        {
          "internalType": "uint256",
          "name": "goal",
          "type": "uint256"
        },
        {
          "internalType": "uint256",
          "name": "pledged",
          "type": "uint256"
        },
        {
          "internalType": "uint32",
          "name": "startAt",
          "type": "uint32"
        },
        {
          "internalType": "uint32",
          "name": "endAt",
          "type": "uint32"
        },
        {
          "internalType": "bool",
          "name": "claimed",
          "type": "bool"
        }
      ],
      "stateMutability": "view",
      "type": "function"
    },
    {
      "inputs": [
        {
          "internalType": "uint256",
          "name": "_id",
          "type": "uint256"
        }
      ],
      "name": "cancel",
      "outputs": [],
      "stateMutability": "nonpayable",
      "type": "function"
    },
    {
      "inputs": [
        {
          "internalType": "uint256",
          "name": "_id",
          "type": "uint256"
        }
      ],
      "name": "claim",
      "outputs": [],
      "stateMutability": "nonpayable",
      "type": "function"
    },
    {
      "inputs": [],
      "name": "count",
      "outputs": [
        {
          "internalType": "uint256",
          "name": "",
          "type": "uint256"
        }
      ],
      "stateMutability": "view",
      "type": "function"
    },
    {
      "inputs": [
        {
          "internalType": "uint256",
          "name": "_goal",
          "type": "uint256"
        },
        {
          "internalType": "uint32",
          "name": "_startAt",
          "type": "uint32"
        },
        {
          "internalType": "uint32",
          "name": "_endAt",
          "type": "uint32"
        }
      ],
      "name": "launch",
      "outputs": [],
      "stateMutability": "nonpayable",
      "type": "function"
    },
    {
      "inputs": [
        {
          "internalType": "uint256",
          "name": "_id",
          "type": "uint256"
        },
        {
          "internalType": "uint256",
          "name": "_amount",
          "type": "uint256"
        }
      ],
      "name": "pledge",
      "outputs": [],
      "stateMutability": "nonpayable",
      "type": "function"
    },
    {
      "inputs": [
        {
          "internalType": "uint256",
          "name": "",
          "type": "uint256"
        },
        {
          "internalType": "address",
          "name": "",
          "type": "address"
        }
      ],
      "name": "pledgedAmount",
      "outputs": [
        {
          "internalType": "uint256",
          "name": "",
          "type": "uint256"
        }
      ],
      "stateMutability": "view",
      "type": "function"
    },
    {
      "inputs": [
        {
          "internalType": "uint256",
          "name": "_id",
          "type": "uint256"
        }
      ],
      "name": "refund",
      "outputs": [],
      "stateMutability": "nonpayable",
      "type": "function"
    },
    {
      "inputs": [],
      "name": "token",
      "outputs": [
        {
          "internalType": "contract IERC20",
          "name": "",
          "type": "address"
        }
      ],
      "stateMutability": "view",
      "type": "function"
    },
    {
      "inputs": [
        {
          "internalType": "uint256",
          "name": "_id",
          "type": "uint256"
        },
        {
          "internalType": "uint256",
          "name": "_amount",
          "type": "uint256"
        }
      ],
      "name": "unpledge",
      "outputs": [],
      "stateMutability": "nonpayable",
      "type": "function"
    }
  ],
  "transactionHash": "0x56643ab4b3587a83aac3d14f987486e3cdc40edb4df91b3215c5018235a3fe63",
  "args": [
    "0x1f9840a85d5aF5bf1D1762F925BDADdC4201F984"
  ],
  "numDeployments": 3,
  "solcInputHash": "dd6aac43673c306c555567b5156260d8",
  "bytecode": "0x60a06040523480156200001157600080fd5b5060405162001d1338038062001d138339818101604052810190620000379190620000dc565b8073ffffffffffffffffffffffffffffffffffffffff1660808173ffffffffffffffffffffffffffffffffffffffff1681525050506200010e565b600080fd5b600073ffffffffffffffffffffffffffffffffffffffff82169050919050565b6000620000a48262000077565b9050919050565b620000b68162000097565b8114620000c257600080fd5b50565b600081519050620000d681620000ab565b92915050565b600060208284031215620000f557620000f462000072565b5b60006200010584828501620000c5565b91505092915050565b608051611bcd62000146600039600081816104b1015281816109fa01528181610e6d01528181610f8501526110fc0152611bcd6000f3fe608060405234801561001057600080fd5b506004361061009e5760003560e01c806340e58ee51161006657806340e58ee51461014a578063711853ab14610166578063aa4fb63a14610182578063fc0c546a146101b2578063fde327be146101d05761009e565b806306661abd146100a3578063141961bc146100c1578063278ecde1146100f65780632c63f14614610112578063379607f51461012e575b600080fd5b6100ab6101ec565b6040516100b89190611208565b60405180910390f35b6100db60048036038101906100d69190611254565b6101f2565b6040516100ed969594939291906112fc565b60405180910390f35b610110600480360381019061010b9190611254565b61027b565b005b61012c60048036038101906101279190611389565b6105a3565b005b61014860048036038101906101439190611254565b610839565b005b610164600480360381019061015f9190611254565b610afa565b005b610180600480360381019061017b91906113dc565b610d75565b005b61019c60048036038101906101979190611448565b610f5e565b6040516101a99190611208565b60405180910390f35b6101ba610f83565b6040516101c791906114e7565b60405180910390f35b6101ea60048036038101906101e591906113dc565b610fa7565b005b60005481565b60016020528060005260406000206000915090508060000160009054906101000a900473ffffffffffffffffffffffffffffffffffffffff16908060010154908060020154908060030160009054906101000a900463ffffffff16908060030160049054906101000a900463ffffffff16908060030160089054906101000a900460ff16905086565b6000600160008381526020019081526020016000206040518060c00160405290816000820160009054906101000a900473ffffffffffffffffffffffffffffffffffffffff1673ffffffffffffffffffffffffffffffffffffffff1673ffffffffffffffffffffffffffffffffffffffff16815260200160018201548152602001600282015481526020016003820160009054906101000a900463ffffffff1663ffffffff1663ffffffff1681526020016003820160049054906101000a900463ffffffff1663ffffffff1663ffffffff1681526020016003820160089054906101000a900460ff1615151515815250509050806080015163ffffffff1642116103ba576040517f08c379a00000000000000000000000000000000000000000000000000000000081526004016103b19061155f565b60405180910390fd5b8060200151816040015110610404576040517f08c379a00000000000000000000000000000000000000000000000000000000081526004016103fb906115cb565b60405180910390fd5b60006002600084815260200190815260200160002060003373ffffffffffffffffffffffffffffffffffffffff1673ffffffffffffffffffffffffffffffffffffffff16815260200190815260200160002054905060006002600085815260200190815260200160002060003373ffffffffffffffffffffffffffffffffffffffff1673ffffffffffffffffffffffffffffffffffffffff168152602001908152602001600020819055507f000000000000000000000000000000000000000000000000000000000000000073ffffffffffffffffffffffffffffffffffffffff1663a9059cbb33836040518363ffffffff1660e01b815260040161050a9291906115eb565b6020604051808303816000875af1158015610529573d6000803e3d6000fd5b505050506040513d601f19601f8201168201806040525081019061054d9190611640565b503373ffffffffffffffffffffffffffffffffffffffff167f21e12a7cad0da5928167e1084ea4d5fdf8d9af66657a2543a9ac76a0ca081477848360405161059692919061166d565b60405180910390a2505050565b428263ffffffff1610156105ec576040517f08c379a00000000000000000000000000000000000000000000000000000000081526004016105e3906116e2565b60405180910390fd5b8163ffffffff168163ffffffff16101561063b576040517f08c379a00000000000000000000000000000000000000000000000000000000081526004016106329061174e565b60405180910390fd5b6276a7004261064a919061179d565b8163ffffffff161115610692576040517f08c379a00000000000000000000000000000000000000000000000000000000081526004016106899061183f565b60405180910390fd5b60016000808282546106a4919061179d565b925050819055506040518060c001604052803373ffffffffffffffffffffffffffffffffffffffff168152602001848152602001600081526020018363ffffffff1681526020018263ffffffff16815260200160001515815250600160008054815260200190815260200160002060008201518160000160006101000a81548173ffffffffffffffffffffffffffffffffffffffff021916908373ffffffffffffffffffffffffffffffffffffffff160217905550602082015181600101556040820151816002015560608201518160030160006101000a81548163ffffffff021916908363ffffffff16021790555060808201518160030160046101000a81548163ffffffff021916908363ffffffff16021790555060a08201518160030160086101000a81548160ff0219169083151502179055509050503373ffffffffffffffffffffffffffffffffffffffff167f0601cd0d650b473037e838a2696d41e654433d065b3f56b28d1d3302e44a304f60005485858560405161082c949392919061185f565b60405180910390a2505050565b60006001600083815260200190815260200160002090503373ffffffffffffffffffffffffffffffffffffffff168160000160009054906101000a900473ffffffffffffffffffffffffffffffffffffffff1673ffffffffffffffffffffffffffffffffffffffff16146108e2576040517f08c379a00000000000000000000000000000000000000000000000000000000081526004016108d9906118f0565b60405180910390fd5b8060030160049054906101000a900463ffffffff1663ffffffff16421161093e576040517f08c379a00000000000000000000000000000000000000000000000000000000081526004016109359061155f565b60405180910390fd5b806001015481600201541015610989576040517f08c379a00000000000000000000000000000000000000000000000000000000081526004016109809061195c565b60405180910390fd5b8060030160089054906101000a900460ff16156109db576040517f08c379a00000000000000000000000000000000000000000000000000000000081526004016109d2906119c8565b60405180910390fd5b60018160030160086101000a81548160ff0219169083151502179055507f000000000000000000000000000000000000000000000000000000000000000073ffffffffffffffffffffffffffffffffffffffff1663a9059cbb8260000160009054906101000a900473ffffffffffffffffffffffffffffffffffffffff1683600201546040518363ffffffff1660e01b8152600401610a7b9291906115eb565b6020604051808303816000875af1158015610a9a573d6000803e3d6000fd5b505050506040513d601f19601f82011682018060405250810190610abe9190611640565b507f7bb2b3c10797baccb6f8c4791f1edd6ca2f0d028ee0eda64b01a9a57e3a653f782604051610aee9190611208565b60405180910390a15050565b6000600160008381526020019081526020016000206040518060c00160405290816000820160009054906101000a900473ffffffffffffffffffffffffffffffffffffffff1673ffffffffffffffffffffffffffffffffffffffff1673ffffffffffffffffffffffffffffffffffffffff16815260200160018201548152602001600282015481526020016003820160009054906101000a900463ffffffff1663ffffffff1663ffffffff1681526020016003820160049054906101000a900463ffffffff1663ffffffff1663ffffffff1681526020016003820160089054906101000a900460ff16151515158152505090503373ffffffffffffffffffffffffffffffffffffffff16816000015173ffffffffffffffffffffffffffffffffffffffff1614610c5f576040517f08c379a0000000000000000000000000000000000000000000000000000000008152600401610c56906118f0565b60405180910390fd5b806060015163ffffffff164210610cab576040517f08c379a0000000000000000000000000000000000000000000000000000000008152600401610ca290611a34565b60405180910390fd5b60016000838152602001908152602001600020600080820160006101000a81549073ffffffffffffffffffffffffffffffffffffffff0219169055600182016000905560028201600090556003820160006101000a81549063ffffffff02191690556003820160046101000a81549063ffffffff02191690556003820160086101000a81549060ff021916905550507f8bf30e7ff26833413be5f69e1d373744864d600b664204b4a2f9844a8eedb9ed82604051610d699190611208565b60405180910390a15050565b60006001600084815260200190815260200160002090508060030160049054906101000a900463ffffffff1663ffffffff16421115610de9576040517f08c379a0000000000000000000000000000000000000000000000000000000008152600401610de090611aa0565b60405180910390fd5b81816002016000828254610dfd9190611ac0565b92505081905550816002600085815260200190815260200160002060003373ffffffffffffffffffffffffffffffffffffffff1673ffffffffffffffffffffffffffffffffffffffff1681526020019081526020016000206000828254610e649190611ac0565b925050819055507f000000000000000000000000000000000000000000000000000000000000000073ffffffffffffffffffffffffffffffffffffffff1663a9059cbb33846040518363ffffffff1660e01b8152600401610ec69291906115eb565b6020604051808303816000875af1158015610ee5573d6000803e3d6000fd5b505050506040513d601f19601f82011682018060405250810190610f099190611640565b503373ffffffffffffffffffffffffffffffffffffffff16837f2eeeab891b26a214d1b25749f88a406bdea852bd8c9bfda977e0ef8114c180ba84604051610f519190611208565b60405180910390a3505050565b6002602052816000526040600020602052806000526040600020600091509150505481565b7f000000000000000000000000000000000000000000000000000000000000000081565b60006001600084815260200190815260200160002090508060030160009054906101000a900463ffffffff1663ffffffff1642101561101b576040517f08c379a000000000000000000000000000000000000000000000000000000000815260040161101290611b40565b60405180910390fd5b8060030160049054906101000a900463ffffffff1663ffffffff16421115611078576040517f08c379a000000000000000000000000000000000000000000000000000000000815260040161106f90611aa0565b60405180910390fd5b8181600201600082825461108c919061179d565b92505081905550816002600085815260200190815260200160002060003373ffffffffffffffffffffffffffffffffffffffff1673ffffffffffffffffffffffffffffffffffffffff16815260200190815260200160002060008282546110f3919061179d565b925050819055507f000000000000000000000000000000000000000000000000000000000000000073ffffffffffffffffffffffffffffffffffffffff166323b872dd3330856040518463ffffffff1660e01b815260040161115793929190611b60565b6020604051808303816000875af1158015611176573d6000803e3d6000fd5b505050506040513d601f19601f8201168201806040525081019061119a9190611640565b503373ffffffffffffffffffffffffffffffffffffffff16837f06bdb975df800a73232998e71ed585d536222f1dfeaa622d7f62a23ada686c82846040516111e29190611208565b60405180910390a3505050565b6000819050919050565b611202816111ef565b82525050565b600060208201905061121d60008301846111f9565b92915050565b600080fd5b611231816111ef565b811461123c57600080fd5b50565b60008135905061124e81611228565b92915050565b60006020828403121561126a57611269611223565b5b60006112788482850161123f565b91505092915050565b600073ffffffffffffffffffffffffffffffffffffffff82169050919050565b60006112ac82611281565b9050919050565b6112bc816112a1565b82525050565b600063ffffffff82169050919050565b6112db816112c2565b82525050565b60008115159050919050565b6112f6816112e1565b82525050565b600060c08201905061131160008301896112b3565b61131e60208301886111f9565b61132b60408301876111f9565b61133860608301866112d2565b61134560808301856112d2565b61135260a08301846112ed565b979650505050505050565b611366816112c2565b811461137157600080fd5b50565b6000813590506113838161135d565b92915050565b6000806000606084860312156113a2576113a1611223565b5b60006113b08682870161123f565b93505060206113c186828701611374565b92505060406113d286828701611374565b9150509250925092565b600080604083850312156113f3576113f2611223565b5b60006114018582860161123f565b92505060206114128582860161123f565b9150509250929050565b611425816112a1565b811461143057600080fd5b50565b6000813590506114428161141c565b92915050565b6000806040838503121561145f5761145e611223565b5b600061146d8582860161123f565b925050602061147e85828601611433565b9150509250929050565b6000819050919050565b60006114ad6114a86114a384611281565b611488565b611281565b9050919050565b60006114bf82611492565b9050919050565b60006114d1826114b4565b9050919050565b6114e1816114c6565b82525050565b60006020820190506114fc60008301846114d8565b92915050565b600082825260208201905092915050565b7f6e6f7420656e6465640000000000000000000000000000000000000000000000600082015250565b6000611549600983611502565b915061155482611513565b602082019050919050565b600060208201905081810360008301526115788161153c565b9050919050565b7f706c6564676564203e3d20676f616c0000000000000000000000000000000000600082015250565b60006115b5600f83611502565b91506115c08261157f565b602082019050919050565b600060208201905081810360008301526115e4816115a8565b9050919050565b600060408201905061160060008301856112b3565b61160d60208301846111f9565b9392505050565b61161d816112e1565b811461162857600080fd5b50565b60008151905061163a81611614565b92915050565b60006020828403121561165657611655611223565b5b60006116648482850161162b565b91505092915050565b600060408201905061168260008301856111f9565b61168f60208301846111f9565b9392505050565b7f7374617274206174203c206e6f77000000000000000000000000000000000000600082015250565b60006116cc600e83611502565b91506116d782611696565b602082019050919050565b600060208201905081810360008301526116fb816116bf565b9050919050565b7f656e64206174203c207374617274206174000000000000000000000000000000600082015250565b6000611738601183611502565b915061174382611702565b602082019050919050565b600060208201905081810360008301526117678161172b565b9050919050565b7f4e487b7100000000000000000000000000000000000000000000000000000000600052601160045260246000fd5b60006117a8826111ef565b91506117b3836111ef565b9250827fffffffffffffffffffffffffffffffffffffffffffffffffffffffffffffffff038211156117e8576117e761176e565b5b828201905092915050565b7f656e64206174203e206d6178206475726174696f6e0000000000000000000000600082015250565b6000611829601583611502565b9150611834826117f3565b602082019050919050565b600060208201905081810360008301526118588161181c565b9050919050565b600060808201905061187460008301876111f9565b61188160208301866111f9565b61188e60408301856112d2565b61189b60608301846112d2565b95945050505050565b7f6e6f742063726561746f72000000000000000000000000000000000000000000600082015250565b60006118da600b83611502565b91506118e5826118a4565b602082019050919050565b60006020820190508181036000830152611909816118cd565b9050919050565b7f706c6564676564203c20676f616c000000000000000000000000000000000000600082015250565b6000611946600e83611502565b915061195182611910565b602082019050919050565b6000602082019050818103600083015261197581611939565b9050919050565b7f636c61696d656400000000000000000000000000000000000000000000000000600082015250565b60006119b2600783611502565b91506119bd8261197c565b602082019050919050565b600060208201905081810360008301526119e1816119a5565b9050919050565b7f7374617274656400000000000000000000000000000000000000000000000000600082015250565b6000611a1e600783611502565b9150611a29826119e8565b602082019050919050565b60006020820190508181036000830152611a4d81611a11565b9050919050565b7f656e646564000000000000000000000000000000000000000000000000000000600082015250565b6000611a8a600583611502565b9150611a9582611a54565b602082019050919050565b60006020820190508181036000830152611ab981611a7d565b9050919050565b6000611acb826111ef565b9150611ad6836111ef565b925082821015611ae957611ae861176e565b5b828203905092915050565b7f6e6f742073746172746564000000000000000000000000000000000000000000600082015250565b6000611b2a600b83611502565b9150611b3582611af4565b602082019050919050565b60006020820190508181036000830152611b5981611b1d565b9050919050565b6000606082019050611b7560008301866112b3565b611b8260208301856112b3565b611b8f60408301846111f9565b94935050505056fea2646970667358221220c799d44a43b81385f15b3dfd3e40e3b87fb332c6e8523a9366bba506fbf52ee864736f6c634300080a0033",
  "devdoc": {
    "kind": "dev",
    "methods": {},
    "version": 1
  },
  "userdoc": {
    "kind": "user",
    "methods": {},
    "version": 1
  },
  "storageLayout": {
    "storage": [
      {
        "astId": 27,
        "contract": "contracts/crowdFund.sol:CrowdFund",
        "label": "count",
        "offset": 0,
        "slot": "0",
        "type": "t_uint256"
      },
      {
        "astId": 32,
        "contract": "contracts/crowdFund.sol:CrowdFund",
        "label": "campaigns",
        "offset": 0,
        "slot": "1",
        "type": "t_mapping(t_uint256,t_struct(Campaign)95_storage)"
      },
      {
        "astId": 38,
        "contract": "contracts/crowdFund.sol:CrowdFund",
        "label": "pledgedAmount",
        "offset": 0,
        "slot": "2",
        "type": "t_mapping(t_uint256,t_mapping(t_address,t_uint256))"
      }
    ],
    "types": {
      "t_address": {
        "encoding": "inplace",
        "label": "address",
        "numberOfBytes": "20"
      },
      "t_bool": {
        "encoding": "inplace",
        "label": "bool",
        "numberOfBytes": "1"
      },
      "t_mapping(t_address,t_uint256)": {
        "encoding": "mapping",
        "key": "t_address",
        "label": "mapping(address => uint256)",
        "numberOfBytes": "32",
        "value": "t_uint256"
      },
      "t_mapping(t_uint256,t_mapping(t_address,t_uint256))": {
        "encoding": "mapping",
        "key": "t_uint256",
        "label": "mapping(uint256 => mapping(address => uint256))",
        "numberOfBytes": "32",
        "value": "t_mapping(t_address,t_uint256)"
      },
      "t_mapping(t_uint256,t_struct(Campaign)95_storage)": {
        "encoding": "mapping",
        "key": "t_uint256",
        "label": "mapping(uint256 => struct CrowdFund.Campaign)",
        "numberOfBytes": "32",
        "value": "t_struct(Campaign)95_storage"
      },
      "t_struct(Campaign)95_storage": {
        "encoding": "inplace",
        "label": "struct CrowdFund.Campaign",
        "members": [
          {
            "astId": 84,
            "contract": "contracts/crowdFund.sol:CrowdFund",
            "label": "creator",
            "offset": 0,
            "slot": "0",
            "type": "t_address"
          },
          {
            "astId": 86,
            "contract": "contracts/crowdFund.sol:CrowdFund",
            "label": "goal",
            "offset": 0,
            "slot": "1",
            "type": "t_uint256"
          },
          {
            "astId": 88,
            "contract": "contracts/crowdFund.sol:CrowdFund",
            "label": "pledged",
            "offset": 0,
            "slot": "2",
            "type": "t_uint256"
          },
          {
            "astId": 90,
            "contract": "contracts/crowdFund.sol:CrowdFund",
            "label": "startAt",
            "offset": 0,
            "slot": "3",
            "type": "t_uint32"
          },
          {
            "astId": 92,
            "contract": "contracts/crowdFund.sol:CrowdFund",
            "label": "endAt",
            "offset": 4,
            "slot": "3",
            "type": "t_uint32"
          },
          {
            "astId": 94,
            "contract": "contracts/crowdFund.sol:CrowdFund",
            "label": "claimed",
            "offset": 8,
            "slot": "3",
            "type": "t_bool"
          }
        ],
        "numberOfBytes": "128"
      },
      "t_uint256": {
        "encoding": "inplace",
        "label": "uint256",
        "numberOfBytes": "32"
      },
      "t_uint32": {
        "encoding": "inplace",
        "label": "uint32",
        "numberOfBytes": "4"
      }
    }
  }
}