{
  "address": "0xbba96da3000ece87c141f955d1d09a7a3f528dd6",
  "abi": [
    {
      "inputs": [
        {
          "internalType": "address",
          "name": "_token",
          "type": "address"
        }
      ],
      "stateMutability": "nonpayable",
      "type": "constructor"
    },
    {
      "anonymous": false,
      "inputs": [
        {
          "indexed": false,
          "internalType": "uint256",
          "name": "id",
          "type": "uint256"
        }
      ],
      "name": "Cancel",
      "type": "event"
    },
    {
      "anonymous": false,
      "inputs": [
        {
          "indexed": false,
          "internalType": "uint256",
          "name": "id",
          "type": "uint256"
        }
      ],
      "name": "Claim",
      "type": "event"
    },
    {
      "anonymous": false,
      "inputs": [
        {
          "indexed": false,
          "internalType": "uint256",
          "name": "id",
          "type": "uint256"
        },
        {
          "indexed": true,
          "internalType": "address",
          "name": "creator",
          "type": "address"
        },
        {
          "indexed": false,
          "internalType": "uint256",
          "name": "goal",
          "type": "uint256"
        }
      ],
      "name": "Launch",
      "type": "event"
    },
    {
      "anonymous": false,
      "inputs": [
        {
          "indexed": true,
          "internalType": "uint256",
          "name": "id",
          "type": "uint256"
        },
        {
          "indexed": true,
          "internalType": "address",
          "name": "caller",
          "type": "address"
        },
        {
          "indexed": false,
          "internalType": "uint256",
          "name": "amount",
          "type": "uint256"
        }
      ],
      "name": "Pledge",
      "type": "event"
    },
    {
      "anonymous": false,
      "inputs": [
        {
          "indexed": false,
          "internalType": "uint256",
          "name": "id",
          "type": "uint256"
        },
        {
          "indexed": true,
          "internalType": "address",
          "name": "caller",
          "type": "address"
        },
        {
          "indexed": false,
          "internalType": "uint256",
          "name": "amount",
          "type": "uint256"
        }
      ],
      "name": "Refund",
      "type": "event"
    },
    {
      "anonymous": false,
      "inputs": [
        {
          "indexed": true,
          "internalType": "uint256",
          "name": "id",
          "type": "uint256"
        },
        {
          "indexed": true,
          "internalType": "address",
          "name": "caller",
          "type": "address"
        },
        {
          "indexed": false,
          "internalType": "uint256",
          "name": "amount",
          "type": "uint256"
        }
      ],
      "name": "Unpledge",
      "type": "event"
    },
    {
      "inputs": [
        {
          "internalType": "uint256",
          "name": "",
          "type": "uint256"
        }
      ],
      "name": "campaigns",
      "outputs": [
        {
          "internalType": "address",
          "name": "creator",
          "type": "address"
        },
        {
          "internalType": "uint256",
          "name": "goal",
          "type": "uint256"
        },
        {
          "internalType": "uint256",
          "name": "pledged",
          "type": "uint256"
        },
        {
          "internalType": "bool",
          "name": "claimed",
          "type": "bool"
        }
      ],
      "stateMutability": "view",
      "type": "function"
    },
    {
      "inputs": [
        {
          "internalType": "uint256",
          "name": "_id",
          "type": "uint256"
        }
      ],
      "name": "cancel",
      "outputs": [],
      "stateMutability": "nonpayable",
      "type": "function"
    },
    {
      "inputs": [
        {
          "internalType": "uint256",
          "name": "_id",
          "type": "uint256"
        }
      ],
      "name": "claim",
      "outputs": [],
      "stateMutability": "nonpayable",
      "type": "function"
    },
    {
      "inputs": [],
      "name": "count",
      "outputs": [
        {
          "internalType": "uint256",
          "name": "",
          "type": "uint256"
        }
      ],
      "stateMutability": "view",
      "type": "function"
    },
    {
      "inputs": [
        {
          "internalType": "uint256",
          "name": "_goal",
          "type": "uint256"
        }
      ],
      "name": "launch",
      "outputs": [],
      "stateMutability": "nonpayable",
      "type": "function"
    },
    {
      "inputs": [
        {
          "internalType": "uint256",
          "name": "_id",
          "type": "uint256"
        },
        {
          "internalType": "uint256",
          "name": "_amount",
          "type": "uint256"
        }
      ],
      "name": "pledge",
      "outputs": [],
      "stateMutability": "nonpayable",
      "type": "function"
    },
    {
      "inputs": [
        {
          "internalType": "uint256",
          "name": "",
          "type": "uint256"
        },
        {
          "internalType": "address",
          "name": "",
          "type": "address"
        }
      ],
      "name": "pledgedAmount",
      "outputs": [
        {
          "internalType": "uint256",
          "name": "",
          "type": "uint256"
        }
      ],
      "stateMutability": "view",
      "type": "function"
    },
    {
      "inputs": [
        {
          "internalType": "uint256",
          "name": "_id",
          "type": "uint256"
        }
      ],
      "name": "refund",
      "outputs": [],
      "stateMutability": "nonpayable",
      "type": "function"
    },
    {
      "inputs": [],
      "name": "token",
      "outputs": [
        {
          "internalType": "contract IERC20",
          "name": "",
          "type": "address"
        }
      ],
      "stateMutability": "view",
      "type": "function"
    },
    {
      "inputs": [
        {
          "internalType": "uint256",
          "name": "_id",
          "type": "uint256"
        },
        {
          "internalType": "uint256",
          "name": "_amount",
          "type": "uint256"
        }
      ],
      "name": "unpledge",
      "outputs": [],
      "stateMutability": "nonpayable",
      "type": "function"
    }
  ],
  "transactionHash": "0x85aa7e46555ae0d3f5c95d14669b4d0ffd86087f65ec88eff463cc51c102da82",
  "args": [
    "0x1f9840a85d5aF5bf1D1762F925BDADdC4201F984"
  ],
  "numDeployments": 1,
  "solcInputHash": "6e135b44f800e033dabffc00218eaa34",
  "bytecode": "0x60a06040523480156200001157600080fd5b50604051620014c6380380620014c68339818101604052810190620000379190620000dc565b8073ffffffffffffffffffffffffffffffffffffffff1660808173ffffffffffffffffffffffffffffffffffffffff1681525050506200010e565b600080fd5b600073ffffffffffffffffffffffffffffffffffffffff82169050919050565b6000620000a48262000077565b9050919050565b620000b68162000097565b8114620000c257600080fd5b50565b600081519050620000d681620000ab565b92915050565b600060208284031215620000f557620000f462000072565b5b60006200010584828501620000c5565b91505092915050565b60805161138062000146600039600081816103eb015281816106420152818161099201528181610be50152610ca201526113806000f3fe608060405234801561001057600080fd5b506004361061009e5760003560e01c8063711853ab11610066578063711853ab1461014857806385b12c7c14610164578063aa4fb63a14610180578063fc0c546a146101b0578063fde327be146101ce5761009e565b806306661abd146100a3578063141961bc146100c1578063278ecde1146100f4578063379607f51461011057806340e58ee51461012c575b600080fd5b6100ab6101ea565b6040516100b89190610dae565b60405180910390f35b6100db60048036038101906100d69190610dfa565b6101f0565b6040516100eb9493929190610e83565b60405180910390f35b61010e60048036038101906101099190610dfa565b61024d565b005b61012a60048036038101906101259190610dfa565b6104dd565b005b61014660048036038101906101419190610dfa565b610742565b005b610162600480360381019061015d9190610ec8565b6108f7565b005b61017e60048036038101906101799190610dfa565b610a83565b005b61019a60048036038101906101959190610f34565b610bbe565b6040516101a79190610dae565b60405180910390f35b6101b8610be3565b6040516101c59190610fd3565b60405180910390f35b6101e860048036038101906101e39190610ec8565b610c07565b005b60005481565b60016020528060005260406000206000915090508060000160009054906101000a900473ffffffffffffffffffffffffffffffffffffffff16908060010154908060020154908060030160009054906101000a900460ff16905084565b6000600160008381526020019081526020016000206040518060800160405290816000820160009054906101000a900473ffffffffffffffffffffffffffffffffffffffff1673ffffffffffffffffffffffffffffffffffffffff1673ffffffffffffffffffffffffffffffffffffffff16815260200160018201548152602001600282015481526020016003820160009054906101000a900460ff1615151515815250509050806020015181604001511061033e576040517f08c379a00000000000000000000000000000000000000000000000000000000081526004016103359061104b565b60405180910390fd5b60006002600084815260200190815260200160002060003373ffffffffffffffffffffffffffffffffffffffff1673ffffffffffffffffffffffffffffffffffffffff16815260200190815260200160002054905060006002600085815260200190815260200160002060003373ffffffffffffffffffffffffffffffffffffffff1673ffffffffffffffffffffffffffffffffffffffff168152602001908152602001600020819055507f000000000000000000000000000000000000000000000000000000000000000073ffffffffffffffffffffffffffffffffffffffff1663a9059cbb33836040518363ffffffff1660e01b815260040161044492919061106b565b6020604051808303816000875af1158015610463573d6000803e3d6000fd5b505050506040513d601f19601f8201168201806040525081019061048791906110c0565b503373ffffffffffffffffffffffffffffffffffffffff167f21e12a7cad0da5928167e1084ea4d5fdf8d9af66657a2543a9ac76a0ca08147784836040516104d09291906110ed565b60405180910390a2505050565b60006001600083815260200190815260200160002090503373ffffffffffffffffffffffffffffffffffffffff168160000160009054906101000a900473ffffffffffffffffffffffffffffffffffffffff1673ffffffffffffffffffffffffffffffffffffffff1614610586576040517f08c379a000000000000000000000000000000000000000000000000000000000815260040161057d90611162565b60405180910390fd5b8060010154816002015410156105d1576040517f08c379a00000000000000000000000000000000000000000000000000000000081526004016105c8906111ce565b60405180910390fd5b8060030160009054906101000a900460ff1615610623576040517f08c379a000000000000000000000000000000000000000000000000000000000815260040161061a9061123a565b60405180910390fd5b60018160030160006101000a81548160ff0219169083151502179055507f000000000000000000000000000000000000000000000000000000000000000073ffffffffffffffffffffffffffffffffffffffff1663a9059cbb8260000160009054906101000a900473ffffffffffffffffffffffffffffffffffffffff1683600201546040518363ffffffff1660e01b81526004016106c392919061106b565b6020604051808303816000875af11580156106e2573d6000803e3d6000fd5b505050506040513d601f19601f8201168201806040525081019061070691906110c0565b507f7bb2b3c10797baccb6f8c4791f1edd6ca2f0d028ee0eda64b01a9a57e3a653f7826040516107369190610dae565b60405180910390a15050565b6000600160008381526020019081526020016000206040518060800160405290816000820160009054906101000a900473ffffffffffffffffffffffffffffffffffffffff1673ffffffffffffffffffffffffffffffffffffffff1673ffffffffffffffffffffffffffffffffffffffff16815260200160018201548152602001600282015481526020016003820160009054906101000a900460ff16151515158152505090503373ffffffffffffffffffffffffffffffffffffffff16816000015173ffffffffffffffffffffffffffffffffffffffff161461085b576040517f08c379a000000000000000000000000000000000000000000000000000000000815260040161085290611162565b60405180910390fd5b60016000838152602001908152602001600020600080820160006101000a81549073ffffffffffffffffffffffffffffffffffffffff0219169055600182016000905560028201600090556003820160006101000a81549060ff021916905550507f8bf30e7ff26833413be5f69e1d373744864d600b664204b4a2f9844a8eedb9ed826040516108eb9190610dae565b60405180910390a15050565b6000600160008481526020019081526020016000209050818160020160008282546109229190611289565b92505081905550816002600085815260200190815260200160002060003373ffffffffffffffffffffffffffffffffffffffff1673ffffffffffffffffffffffffffffffffffffffff16815260200190815260200160002060008282546109899190611289565b925050819055507f000000000000000000000000000000000000000000000000000000000000000073ffffffffffffffffffffffffffffffffffffffff1663a9059cbb33846040518363ffffffff1660e01b81526004016109eb92919061106b565b6020604051808303816000875af1158015610a0a573d6000803e3d6000fd5b505050506040513d601f19601f82011682018060405250810190610a2e91906110c0565b503373ffffffffffffffffffffffffffffffffffffffff16837f2eeeab891b26a214d1b25749f88a406bdea852bd8c9bfda977e0ef8114c180ba84604051610a769190610dae565b60405180910390a3505050565b6001600080828254610a9591906112bd565b9250508190555060405180608001604052803373ffffffffffffffffffffffffffffffffffffffff1681526020018281526020016000815260200160001515815250600160008054815260200190815260200160002060008201518160000160006101000a81548173ffffffffffffffffffffffffffffffffffffffff021916908373ffffffffffffffffffffffffffffffffffffffff160217905550602082015181600101556040820151816002015560608201518160030160006101000a81548160ff0219169083151502179055509050503373ffffffffffffffffffffffffffffffffffffffff167fbee4ed2238577047373d7cf3657cd0beea1dd6b7aa6a361a6ba5a93701ccf8b260005483604051610bb39291906110ed565b60405180910390a250565b6002602052816000526040600020602052806000526040600020600091509150505481565b7f000000000000000000000000000000000000000000000000000000000000000081565b600060016000848152602001908152602001600020905081816002016000828254610c3291906112bd565b92505081905550816002600085815260200190815260200160002060003373ffffffffffffffffffffffffffffffffffffffff1673ffffffffffffffffffffffffffffffffffffffff1681526020019081526020016000206000828254610c9991906112bd565b925050819055507f000000000000000000000000000000000000000000000000000000000000000073ffffffffffffffffffffffffffffffffffffffff166323b872dd3330856040518463ffffffff1660e01b8152600401610cfd93929190611313565b6020604051808303816000875af1158015610d1c573d6000803e3d6000fd5b505050506040513d601f19601f82011682018060405250810190610d4091906110c0565b503373ffffffffffffffffffffffffffffffffffffffff16837f06bdb975df800a73232998e71ed585d536222f1dfeaa622d7f62a23ada686c8284604051610d889190610dae565b60405180910390a3505050565b6000819050919050565b610da881610d95565b82525050565b6000602082019050610dc36000830184610d9f565b92915050565b600080fd5b610dd781610d95565b8114610de257600080fd5b50565b600081359050610df481610dce565b92915050565b600060208284031215610e1057610e0f610dc9565b5b6000610e1e84828501610de5565b91505092915050565b600073ffffffffffffffffffffffffffffffffffffffff82169050919050565b6000610e5282610e27565b9050919050565b610e6281610e47565b82525050565b60008115159050919050565b610e7d81610e68565b82525050565b6000608082019050610e986000830187610e59565b610ea56020830186610d9f565b610eb26040830185610d9f565b610ebf6060830184610e74565b95945050505050565b60008060408385031215610edf57610ede610dc9565b5b6000610eed85828601610de5565b9250506020610efe85828601610de5565b9150509250929050565b610f1181610e47565b8114610f1c57600080fd5b50565b600081359050610f2e81610f08565b92915050565b60008060408385031215610f4b57610f4a610dc9565b5b6000610f5985828601610de5565b9250506020610f6a85828601610f1f565b9150509250929050565b6000819050919050565b6000610f99610f94610f8f84610e27565b610f74565b610e27565b9050919050565b6000610fab82610f7e565b9050919050565b6000610fbd82610fa0565b9050919050565b610fcd81610fb2565b82525050565b6000602082019050610fe86000830184610fc4565b92915050565b600082825260208201905092915050565b7f706c6564676564203e3d20676f616c0000000000000000000000000000000000600082015250565b6000611035600f83610fee565b915061104082610fff565b602082019050919050565b6000602082019050818103600083015261106481611028565b9050919050565b60006040820190506110806000830185610e59565b61108d6020830184610d9f565b9392505050565b61109d81610e68565b81146110a857600080fd5b50565b6000815190506110ba81611094565b92915050565b6000602082840312156110d6576110d5610dc9565b5b60006110e4848285016110ab565b91505092915050565b60006040820190506111026000830185610d9f565b61110f6020830184610d9f565b9392505050565b7f6e6f742063726561746f72000000000000000000000000000000000000000000600082015250565b600061114c600b83610fee565b915061115782611116565b602082019050919050565b6000602082019050818103600083015261117b8161113f565b9050919050565b7f706c6564676564203c20676f616c000000000000000000000000000000000000600082015250565b60006111b8600e83610fee565b91506111c382611182565b602082019050919050565b600060208201905081810360008301526111e7816111ab565b9050919050565b7f636c61696d656400000000000000000000000000000000000000000000000000600082015250565b6000611224600783610fee565b915061122f826111ee565b602082019050919050565b6000602082019050818103600083015261125381611217565b9050919050565b7f4e487b7100000000000000000000000000000000000000000000000000000000600052601160045260246000fd5b600061129482610d95565b915061129f83610d95565b9250828210156112b2576112b161125a565b5b828203905092915050565b60006112c882610d95565b91506112d383610d95565b9250827fffffffffffffffffffffffffffffffffffffffffffffffffffffffffffffffff038211156113085761130761125a565b5b828201905092915050565b60006060820190506113286000830186610e59565b6113356020830185610e59565b6113426040830184610d9f565b94935050505056fea264697066735822122032f88d04bbfc2e8217ee5006f1c09465ee99cb54a89ae27535a42e0697243b0b64736f6c634300080a0033",
  "devdoc": {
    "kind": "dev",
    "methods": {},
    "version": 1
  },
  "userdoc": {
    "kind": "user",
    "methods": {},
    "version": 1
  },
  "storageLayout": {
    "storage": [
      {
        "astId": 27,
        "contract": "contracts/crowdFund.sol:CrowdFund01",
        "label": "count",
        "offset": 0,
        "slot": "0",
        "type": "t_uint256"
      },
      {
        "astId": 32,
        "contract": "contracts/crowdFund.sol:CrowdFund01",
        "label": "campaigns",
        "offset": 0,
        "slot": "1",
        "type": "t_mapping(t_uint256,t_struct(Campaign)87_storage)"
      },
      {
        "astId": 38,
        "contract": "contracts/crowdFund.sol:CrowdFund01",
        "label": "pledgedAmount",
        "offset": 0,
        "slot": "2",
        "type": "t_mapping(t_uint256,t_mapping(t_address,t_uint256))"
      }
    ],
    "types": {
      "t_address": {
        "encoding": "inplace",
        "label": "address",
        "numberOfBytes": "20"
      },
      "t_bool": {
        "encoding": "inplace",
        "label": "bool",
        "numberOfBytes": "1"
      },
      "t_mapping(t_address,t_uint256)": {
        "encoding": "mapping",
        "key": "t_address",
        "label": "mapping(address => uint256)",
        "numberOfBytes": "32",
        "value": "t_uint256"
      },
      "t_mapping(t_uint256,t_mapping(t_address,t_uint256))": {
        "encoding": "mapping",
        "key": "t_uint256",
        "label": "mapping(uint256 => mapping(address => uint256))",
        "numberOfBytes": "32",
        "value": "t_mapping(t_address,t_uint256)"
      },
      "t_mapping(t_uint256,t_struct(Campaign)87_storage)": {
        "encoding": "mapping",
        "key": "t_uint256",
        "label": "mapping(uint256 => struct CrowdFund01.Campaign)",
        "numberOfBytes": "32",
        "value": "t_struct(Campaign)87_storage"
      },
      "t_struct(Campaign)87_storage": {
        "encoding": "inplace",
        "label": "struct CrowdFund01.Campaign",
        "members": [
          {
            "astId": 80,
            "contract": "contracts/crowdFund.sol:CrowdFund01",
            "label": "creator",
            "offset": 0,
            "slot": "0",
            "type": "t_address"
          },
          {
            "astId": 82,
            "contract": "contracts/crowdFund.sol:CrowdFund01",
            "label": "goal",
            "offset": 0,
            "slot": "1",
            "type": "t_uint256"
          },
          {
            "astId": 84,
            "contract": "contracts/crowdFund.sol:CrowdFund01",
            "label": "pledged",
            "offset": 0,
            "slot": "2",
            "type": "t_uint256"
          },
          {
            "astId": 86,
            "contract": "contracts/crowdFund.sol:CrowdFund01",
            "label": "claimed",
            "offset": 0,
            "slot": "3",
            "type": "t_bool"
          }
        ],
        "numberOfBytes": "128"
      },
      "t_uint256": {
        "encoding": "inplace",
        "label": "uint256",
        "numberOfBytes": "32"
      }
    }
  }
}